:100000000C945D000C9485000C9485000C94850084
:100010000C9485000C9485000C9485000C9485004C
:100020000C9485000C9485000C9485000C94C605F6
:100030000C9485000C9485000C9485000C9485002C
:100040000C9424050C9485000C9494050C946E0576
:100050000C9485000C9485000C9485000C9485000C
:100060000C9485000C94850000000008000201003B
:100070000003040700000000000000000000000072
:10008000250028002B0000000000240027002A0083
:10009000040404040404040402020202020203032E
:1000A0000303030301020408102040800102040836
:1000B0001020010204081020D30611241FBECFEF28
:1000C000D8E0DEBFCDBF12E0A0E0B1E0E6EEF0E2A6
:1000D00002C005900D92A832B107D9F723E0A8E23B
:1000E000B2E001C01D92A731B207E1F710E0CDE503
:1000F000D0E004C02197FE010E943D0ECC35D1070F
:10010000C9F70E945D070C9471100C94000090E0F8
:10011000FC01EC55FF4F249180579F4FFC018491C7
:10012000882399F090E0880F991FFC01EA57FF4F50
:10013000A591B491FC01E458FF4F859194918FB73C
:10014000F894EC91E22BEC938FBF08958F929F92DD
:10015000AF92BF92FF920F931F93CF93DF93F090D4
:10016000F8022BE02F1508F44CC02091FA0208E5A4
:1001700012E0021B110927FD1395000F111F000F3C
:10018000111F2091F902C8E8D0E0C21BD10927FD58
:10019000D395CC0FDD1FCC0FDD1F4E010D2E000CB3
:1001A000AA08BB089801012E000C440B550B281916
:1001B00039094A095B09DC010E941B0D24EB30E080
:1001C00040E050E00E94F10C820E931EA41EB51E6A
:1001D0008C169D062CF0E801801691060CF4E401C3
:1001E0002297CC0FDD1F2FB7F8948F2D90E0FC01E4
:1001F000EE0FFF1FE80FF91FED52FD4FD283C183B1
:100200002FBFDF91CF911F910F91FF90BF90AF90C3
:100210009F908F90089590E0FC01E859FF4F249142
:10022000FC01EC55FF4F3491FC01E057FF4FE49186
:10023000EE23C9F0222339F0233001F1A8F4213054
:1002400019F1223029F1F0E0EE0FFF1FE458FF4FC3
:10025000A591B4918FB7F894EC91611126C03095B7
:100260003E233C938FBF08952730A9F02830C9F072
:10027000243049F7809180008F7D03C080918000F9
:100280008F7780938000DFCF84B58F7784BDDBCFFD
:1002900084B58F7DFBCF8091B0008F778093B000C5
:1002A000D2CF8091B0008F7DF9CF3E2BDACFAF92C5
:1002B000BF92CF92DF92EF92FF920F931F93CF9353
:1002C000DF936C017B018B01040F151FEB015E01B5
:1002D000AE18BF08C017D10759F06991D601ED914A
:1002E000FC910190F081E02DC6010995892B79F7E9
:1002F000C501DF91CF911F910F91FF90EF90DF909B
:10030000CF90BF90AF900895FC01538D448D252F61
:1003100030E0842F90E0821B930B541710F0CF969F
:10032000089501970895FC01918D828D981761F0D1
:10033000A28DAE0FBF2FB11D5D968C91928D9F5FE8
:100340009F73928F90E008958FEF9FEF08952FB7DE
:10035000F8948091320290913302A0913402B091CE
:1003600035022FBF80933E0290933F02A09340023C
:10037000B093410286E392E00E94930197FF26C06A
:100380002FB7F8948091320290913302A0913402F9
:10039000B09135022FBF40913E0250913F026091D3
:1003A000400270914102841B950BA60BB70B409144
:1003B0003A0250913B0260913C0270913D028417D9
:1003C0009507A607B707B0F28FEF9FEF0895FC01DE
:1003D000918D828D981731F0828DE80FF11D858DFA
:1003E00090E008958FEF9FEF0895FC01918D228D8D
:1003F000892F90E0805C9F4F821B91098F73992712
:10040000089586E392E00E94F50121E0892B09F42A
:1004100020E0822F089580E090E0892B29F00E944F
:10042000010281110C9400000895FC01A48DA80F15
:10043000B92FB11DA35ABF4F2C91848D90E0019626
:100440008F739927848FA689B7892C93A089B18946
:100450008C91837080648C93938D848D981306C0E7
:100460000288F389E02D80818F7D80830895EF924B
:10047000FF920F931F93CF93DF93EC0181E0888F5E
:100480009B8D8C8D98131AC0E889F989808185FF2E
:1004900015C09FB7F894EE89FF896083E889F989D0
:1004A00080818370806480839FBF81E090E0DF91D2
:1004B000CF911F910F91FF90EF900895F62E0B8D25
:1004C00010E00F5F1F4F0F731127E02E8C8D8E11E0
:1004D0000CC00FB607FCFACFE889F989808185FF47
:1004E000F5CFCE010E941502F1CFEB8DEC0FFD2F61
:1004F000F11DE35AFF4FF0829FB7F8940B8FEA8902
:10050000FB8980818062CFCFCF93DF93EC01888D10
:100510008823B9F0AA89BB89E889F9898C9185FD7E
:1005200003C0808186FD0DC00FB607FCF7CF8C910C
:1005300085FFF2CF808185FFEDCFCE010E941502AD
:10054000E9CFDF91CF910895089590E080E008957C
:10055000CF93DF93EC0160E08E810E940B0161E09C
:100560008E810E940B0160E08E810E940B018BE85E
:1005700091E00197F1F7DF91CF910895CF92DF924B
:10058000EF92FF920F931F93CF93DF936C017C0147
:1005900087E0E80EF11CD0E0C0E0062F10E0B801C3
:1005A0000C2E02C0759567950A94E2F76170F70109
:1005B00081917F010E940B012196C430D10579F70A
:1005C000C601DF91CF911F910F91FF90EF90DF90C7
:1005D000CF900C94A802CF92DF92EF92FF920F93EC
:1005E0001F93CF93DF93EC01F62E642F8C810E9432
:1005F0000B018D818F3F19F060E00E940B010F2DE0
:1006000010E08F8584FF25C06E0187E0C80ED11CE5
:10061000F12CE12CB8010E2C02C0759567950A9457
:10062000E2F76170F60181916F010E940B01FFEF0B
:10063000EF1AFF0A88E0E816F10461F7CE01DF91B6
:10064000CF911F910F91FF90EF90DF90CF900C947E
:10065000A802B80184E0759567958A95E1F7CE0107
:100660000E94BE026F2DCE01DF91CF911F910F919D
:10067000FF90EF90DF90CF900C94BE0240E0682F87
:100680008BEF92E00C94EB02CF93DF93823029F44E
:1006900090910A03986090930A0380930E0310923E
:1006A0000F0380E48093100380E18093110380E5C1
:1006B000809312038091FF020E94870080910003C3
:1006C0008F3F11F00E948700809101030E948700F4
:1006D000CBEFD2E09E012B5F324080910A0384FD74
:1006E0000AC084E090E02196281739073CF48E81F7
:1006F0000E948700EFCF88E090E0F5CF8BE39DE08C
:100700000197F1F760E08091FF020E940B0160E029
:10071000809101030E940B01809100038F3F19F02B
:1007200060E00E940B0180910A0384FD39C063E000
:100730008BEF92E00E94BE02CBE4D6E4CE0101979B
:10074000F1F763E08BEF92E00E94BE022197F1F790
:1007500063E08BEF92E00E94BE0283E592E0019796
:10076000F1F762E08BEF92E00E94BE0280910A03F3
:1007700080620E943E0384E080930B038CE00E9421
:100780003E0381E00E943E038BE39FE10197F1F776
:1007900082E080930C0386E0DF91CF910C943E03BE
:1007A00080620E943E038BE496E40197F1F780910A
:1007B0000A0380620E943E0383E592E00197F1F70D
:1007C00080910A0380620E943E03D0CF0F931F9353
:1007D000CF93DF938C01EB0181E00E943E038BE31A
:1007E0009FE10197F1F7E1E080910E038111E0E0D4
:1007F000E195F0E0E550FD4F848980680E943E035A
:10080000F80144815581608171818BEF92E00E94F3
:100810005701E0910E03E230A0F4E150F0E0E55022
:10082000FD4F848980680E943E034C815D81688110
:1008300079818BEF92E0DF91CF911F910F910C9412
:100840005701E1E0EBCF41E00E94EB0281E090E054
:100850000895CF93DF93EC0188819981009711F07F
:100860000E94DF0E198218821D821C821B821A824E
:10087000DF91CF910895FC0180819181009711F063
:100880000C94DF0E0895FC0124813581232B39F46B
:1008900021E0FB018081882349F020E007C08081AE
:1008A00091810E94391021E0892BB9F7822F089598
:1008B0000F931F93CF93DF93EC0188819981009769
:1008C00059F02A813B812617370730F081E0DF910C
:1008D000CF911F910F9108958B016F5F7F4F0E9401
:1008E000680F009759F0998388831B830A832C81B2
:1008F0003D81232B59F7FC011082E8CF80E0E7CF40
:10090000EF92FF920F931F93CF93DF9361157105C1
:1009100041F480E0DF91CF911F910F91FF90EF9014
:10092000089541155105B1F07B01EC010C811D8149
:10093000040F151FB8010E945804882351F3288121
:1009400039818C819D81B701820F931F0E944210D3
:100950001D830C8381E0DECFEF92FF920F931F93F4
:10096000CF93DF93EC017B018A01BA010E94580406
:1009700081110BC0CE010E942904CE01DF91CF91DD
:100980001F910F91FF90EF9008951D830C83B70185
:10099000888199810E944210F0CFFC01118210825F
:1009A0001382128215821482FB0101900020E9F764
:1009B0003197AF01461B570B0C94AC04CF93DF93D8
:1009C000CDB7DEB72C970FB6F894DEBF0FBECDBF04
:1009D00060E088E00E940B0160E089E00E940B016A
:1009E00060E087E00E940B0190E080E00E94A6009A
:1009F00060E08FE00E940B0161E080E10E940B014A
:100A000068E271E0CE0107960E94CD0468E371E0D0
:100A1000CE0101960E94CD04BE01695F7F4FCE01D9
:100A200001960E94E603CE0101960E943B04CE018E
:100A300007960E943B042C960FB6F894DEBF0FBEBB
:100A4000CDBFDF91CF9108951F920F920FB60F92F5
:100A500011242F933F938F939F93AF93BF938091D4
:100A6000320290913302A0913402B091350230915C
:100A7000310223E0230F2D3758F50196A11DB11D3A
:100A8000209331028093320290933302A093340278
:100A9000B093350280912D0290912E02A0912F02E9
:100AA000B09130020196A11DB11D80932D0290934B
:100AB0002E02A0932F02B0933002BF91AF919F916D
:100AC0008F913F912F910F900FBE0F901F9018950F
:100AD00026E8230F0296A11DB11DD2CF1F920F92BF
:100AE0000FB60F9211242F933F934F935F936F9301
:100AF0007F938F939F93AF93BF93EF93FF9386E37F
:100B000092E00E941502FF91EF91BF91AF919F91EA
:100B10008F917F916F915F914F913F912F910F90A6
:100B20000FBE0F901F9018951F920F920FB60F9245
:100B300011242F938F939F93EF93FF93E09146029D
:100B4000F09147028081E0914C02F0914D0282FDCC
:100B50001BC0908180914F028F5F8F732091500254
:100B6000821741F0E0914F02F0E0EA5CFD4F958F73
:100B700080934F02FF91EF919F918F912F910F9052
:100B80000FBE0F901F9018958081F4CF1F920F9287
:100B90000FB60F9211242F933F934F935F936F9350
:100BA0007F938F939F93AF93BF93CF93DF93EF93F5
:100BB000FF9380912802C091F702D0E087FF24C004
:100BC0001092850010928400809128028F5F80939C
:100BD000280280912802082E000C990B8C179D0783
:100BE00024F4809128028C30C4F18091840090918B
:100BF0008500049680349C4908F47AC08091840072
:100C000090918500049676C080912802082E000CF1
:100C1000990B8C179D07C4F6E09128028E2FEE0FDA
:100C2000990BFC01EE0FFF1FE80FF91FED52FD4F6E
:100C3000808186FFC9CFE09128028E2FEE0F990B9D
:100C4000FC01EE0FFF1FE80FF91FED52FD4F8081F1
:100C500060E08F730E940B01B7CF20918400309128
:100C60008500E09128028E2FEE0F990BFC01EE0F0C
:100C7000FF1FE80FF91FED52FD4F81819281820F16
:100C8000931F9093890080938800E09128028E2F13
:100C9000EE0F990BFC01EE0FFF1FE80FF91FED524D
:100CA000FD4F808186FF11C0E09128028E2FEE0F4C
:100CB000990BFC01EE0FFF1FE80FF91FED52FD4FDE
:100CC000808161E08F730E940B01FF91EF91DF91B2
:100CD000CF91BF91AF919F918F917F916F915F91D4
:100CE0004F913F912F910F900FBE0F901F9018952D
:100CF00080E49CE990938900809388008FEF809333
:100D00002802E3CFFC0101900020E9F73197AF0101
:100D1000481B590BBC0186E392E00C9457018F925B
:100D20009F92AF92BF920F931F93CF93DF93CDB754
:100D3000DEB7A1970FB6F894DEBF0FBECDBF19A2E4
:100D4000423008F44AE08E010F5D1F4F842E912C33
:100D5000B12CA12CA50194010E945A0DE62FB901D6
:100D6000CA01EA30F4F4E05DD801EE938D01232B43
:100D7000242B252B79F790E080E0109719F0CD0116
:100D80000E948206A1960FB6F894DEBF0FBECDBFBB
:100D9000DF91CF911F910F91BF90AF909F908F9057
:100DA0000895E95CE1CFCF93109239021092380296
:100DB00088EE93E0A0E0B0E080933A0290933B028B
:100DC000A0933C02B0933D028EE091E090933702F5
:100DD0008093360285EC90E0909343028093420228
:100DE00084EC90E0909345028093440280EC90E084
:100DF000909347028093460281EC90E090934902E1
:100E00008093480282EC90E090934B0280934A02D8
:100E100086EC90E090934D0280934C0210924F022A
:100E20001092500210925102109252021092FE0241
:100E30001092FD0280E291E09093FC028093FB020D
:100E40008CE08093FF02CFEFC09300038BE0809390
:100E5000010385E08093020384E08093030383E031
:100E60008093040382E0809305031092060310929E
:100E70000703109208031092090310920A0381E0FD
:100E80000E9444038091F7028C30A0F491E0980F07
:100E90009093F7028093F80290E0FC01EE0FFF1FA1
:100EA000E80FF91FED52FD4F88EB9BE092838183A1
:100EB000CF910895C093F802FBCFCF93DF93CDB7C6
:100EC000DEB76E970FB6F894DEBF0FBECDBF789435
:100ED00084B5826084BD84B5816084BD85B582603F
:100EE00085BD85B5816085BD80916E0081608093F0
:100EF0006E00109281008091810082608093810059
:100F00008091810081608093810080918000816068
:100F1000809380008091B10084608093B1008091C3
:100F2000B00081608093B00080917A0084608093EB
:100F30007A0080917A00826080937A0080917A00B2
:100F4000816080937A0080917A00806880937A0033
:100F50001092C100E0914602F091470282E0808346
:100F6000E0914202F09143021082E0914402F0913C
:100F700045028FEC808310924E02E0914A02F0917C
:100F80004B0286E08083E0914802F0914902808123
:100F900080618083E0914802F091490280818860FD
:100FA0008083E0914802F0914902808180688083CB
:100FB000E0914802F091490280818F7D808384E135
:100FC00090E0A0E0B0E080933A0290933B02A093BF
:100FD0003C02B0933D0282E00E94440387E00E94FD
:100FE000870088E00E94870089E00E9487008AE0ED
:100FF0000E9487008FE00E94870080E10E948700A6
:101000008091F8028C3008F050C08AE00E9487007E
:101010008091F802282F30E0F901EE0FFF1FE20F58
:10102000F31FED52FD4F9081907C9A609083109257
:10103000F9021092FA022CE0622F0E94310E829F78
:10104000B001112430E020E0AB01420F531FFA0140
:10105000EE0FFF1FE40FF51FED52FD4F908196FD3F
:1010600016C02F5F3F4F2C30310571F781110FC033
:101070001092800082E0809381001092850010928F
:101080008400B19A80916F00826080936F00E0913C
:10109000F8028E2F90E0FC01EE0FFF1FE80FF91F02
:1010A000ED52FD4F8081806480830E94DE0490E0D9
:1010B000C92E90E0D92E80E4382E2FB7F894809175
:1010C000320290913302A0913402B09135022FBFC9
:1010D0004091290250912A0260912B0270912C02BA
:1010E000841B950BA60BB70B893E9340A105B10558
:1010F000E0F130927C0080917A00806480937A00E5
:1011000080917A0086FDFCCF609178007091790023
:10111000072E000C880B990B0E94D10B2AE038E2B5
:1011200040EA5BE30E94300C20E030E048EC52E4FF
:101130000E94300C609300017093010180930201C2
:10114000909303012FB7F89480913202909133026B
:10115000A0913402B09135022FBF80932902909361
:101160002A02A0932B02B0932C0286E392E00E9405
:10117000F501181619060CF030C168E072E0CE01D6
:1011800049960E94CD040E94A70197FD0FC08A30A6
:10119000910561F089831A8241E050E0BE016F5FE2
:1011A0007F4FCE0149960E948004EDCFA98CBA8C66
:1011B000A114B10439F00D8D1E8D750101151105B5
:1011C00009F05FC066E471E0CE0149960E944304D5
:1011D000811110C068E471E0CE0149960E94430479
:1011E000811108C060E080E10E940B0161E08FE0A6
:1011F0000E940B016AE471E0CE0149960E9443040B
:10120000811175C06CE471E0CE0149960E944304DF
:1012100081116DC064E571E0CE0149960E944304DE
:10122000811185C06EE771E0CE0149960E944304AA
:10123000811184C060E871E0CE0149960E944304A8
:1012400081117CC067E871E0CE0149960E94430499
:1012500081117BC060EA71E0CE0149960E9443048F
:10126000882309F479C08AE590E00E94A60062EA2A
:1012700071E0CE0107960E94CD046FEA71E043C091
:10128000740147013FEF831A930AF7018081082E0A
:10129000000C990B0E94C10B892B91F70150110989
:1012A0000A0D1B1DF8018081082E000C990B0E946D
:1012B000C10B892B31F00E151F0518F001501109D3
:1012C000F1CFA8014F5F5F4F4E195F095E8F4D8FC1
:1012D000AE14BF0420F4B701C5010E942510E98DAA
:1012E000FA8D8D8D9E8DE80FF91F10826BCF61E016
:1012F00088E00E940B016DE571E0CE0107960E9427
:10130000CD0466E671E0CE0101960E94CD04BE01D7
:10131000695F7F4FCE0101960E94E603CE010196E0
:101320000E943B04CE0107960E943B0452C060E03D
:1013300088E00E940B0164E771E0DFCF61E089E0A3
:101340000E940B016FE871E0D8CF60E089E00E9455
:101350000B0167E971E0D1CF62E771E0CE014996F8
:101360000E944304882339F090E080E00E94A600A8
:101370006CEB71E07ECF6BEC71E0CE0149960E9480
:101380004304882369F061E087E00E940B0161ED6E
:1013900071E0CE0107960E94CD0468ED71E0B3CFF5
:1013A00062EE71E0CE0149960E944304882339F031
:1013B00060E087E00E940B0169EE71E0EACF66E42D
:1013C00071E0CE0149960E944304882391F00E9467
:1013D000DE04CE0149960E943B04C114D10409F4F5
:1013E0006CCE0E940102882309F465CE0E940000A1
:1013F00062CE68E471E0CE0149960E944304182F42
:10140000882309F4AFC081EF91E00E9482068090AA
:10141000000190900101A0900201B0900301A5018C
:101420009401C501B4010E942C0E882349F08AEF73
:1014300091E00E94820686E092E00E948206C9CF77
:1014400024013501E89477F82FEF3FEF4FE75FE78E
:10145000C301B2010E942C0E81110DC02FEF3FEF8E
:101460004FE75FE7C301B2010E94CA0B18161CF4D4
:101470008EEF91E0DECF2FEF3FEF4FE75FE4C50146
:10148000B4010E94270E18161CF482E092E0D1CF1E
:101490002FEF3FEF4FE75FECC501B4010E94CA0B8D
:1014A00087FDF3CF20E030E0A901C501B4010E941F
:1014B000CA0B87FF09C06DE286E392E00E94370203
:1014C000B7FAB094B7F8B0942AE037ED43EA5BE39B
:1014D000C501B4010E948C0D2B013C010E94F80D46
:1014E0004B015C010E94CF0B9B01AC01C301B20117
:1014F0000E948B0D2B013C014AE0C501B4010E9402
:101500008F066EE286E392E00E94370220E030E030
:1015100040E251E4C301B2010E94300C2B013C01B6
:101520000E94F80D4B01B12CA12C4AE0C501B40179
:101530000E948F06C501B4010E94CF0B9B01AC0134
:10154000C301B2010E948B0D20E030E040E251E483
:101550000E94300C0E94F80D90E080E04AE00E946A
:101560008F0669CF69E072E0CE0101960E94CD043A
:101570004D815E818D8D9E8D8417950778F0898DC4
:101580009A8D009759F069817A816115710531F062
:101590000E94491011E0892B09F010E0CE0101965C
:1015A0000E943B04112309F414CF6DEE71E0CE01CB
:1015B00001960E94CD048D8D9E8D892B09F1098D98
:1015C0001A8D69817A81C8010E9457100097C1F075
:1015D0009C01201B310B8901CE0101960E943B0426
:1015E0001016110684F460E087E00E940B0169EE9A
:1015F00071E0CE0107960E94CD046EE072E083CECA
:101600000FEF1FEFE9CF61E087E00E940B01ED8C47
:10161000FE8CE114F10409F4A9C0098D1A8D6AE366
:1016200070E0C8010E942E10009709F49FC0FC01D1
:10163000E01BF10B8F010F5F1F4F0E151F0508F008
:1016400098C0E98CFA8C6AE370E0C701800F911FA3
:101650000E942E10009709F48CC08E199F097C01FE
:101660008017910728F4902F812F8701E92EF82EFB
:1016700068E072E0CE0143960E94CD04AD8CBE8C32
:101680000A151B0520F5EA14FB0408F45701E98D3F
:10169000FA8DEA0DFB1DF0801082698D7A8D600F46
:1016A000711F6115710509F467C0FB0101900020ED
:1016B000E9F73197AF01461B570BCE0143960E94C5
:1016C000AC04898D9A8DA80EB91EF501F0826CE1EB
:1016D00072E0CE0107960E94CD044F89588D6B8928
:1016E0007C89CE0107960E948004811104C0CE013E
:1016F00007960E94290441E050E065E272E0CE01C5
:1017000007960E948004811104C0CE0107960E94B2
:1017100029041E861D86188A1F861A8A198A6F81D7
:1017200078856115710531F04B855C85CE010D968C
:101730000E94AC046EE072E0CE0101960E94CD04DE
:10174000BE01635F7F4FCE0101960E94E603CE018A
:1017500001960E943B04CE010D960E943B04CE01EF
:1017600007960E943B04CE014396DECD0FEF1FEF9C
:1017700062CF8FEF9FEF73CFCE0143960E94290473
:10178000A0CF91110C949D0C803219F08950855096
:10179000C8F708950E940C0C08F481E00895E894BD
:1017A00009C097FB3EF490958095709561957F4FA9
:1017B0008F4F9F4F9923A9F0F92F96E9BB27939557
:1017C000F695879577956795B795F111F8CFFAF467
:1017D000BB0F11F460FF1BC06F5F7F4F8F4F9F4F98
:1017E00016C0882311F096E911C0772321F09EE8F6
:1017F000872F762F05C0662371F096E8862F70E05C
:1018000060E02AF09A95660F771F881FDAF7880F35
:101810009695879597F90895990F0008550FAA0B8B
:10182000E0E8FEEF16161706E807F907C0F01216F3
:101830001306E407F50798F0621B730B840B950BF6
:1018400039F40A2661F0232B242B252B21F408954B
:101850000A2609F4A140A6958FEF811D811D0895E8
:101860000E94430C0C94B70C0E94A90C38F00E9403
:10187000B00C20F0952311F00C94A00C0C94A60C45
:1018800011240C94EB0C0E94C80C70F3959FC1F3CB
:10189000950F50E0551F629FF001729FBB27F00D1E
:1018A000B11D639FAA27F00DB11DAA1F649F662773
:1018B000B00DA11D661F829F2227B00DA11D621FC2
:1018C000739FB00DA11D621F839FA00D611D221F7C
:1018D000749F3327A00D611D231F849F600D211D60
:1018E000822F762F6A2F11249F5750409AF0F1F0E3
:1018F00088234AF0EE0FFF1FBB1F661F771F881F4C
:1019000091505040A9F79E3F510580F00C94A00CD7
:101910000C94EB0C5F3FE4F3983ED4F386957795F7
:101920006795B795F795E7959F5FC1F7FE2B880FF1
:10193000911D9695879597F9089599278827089579
:1019400097F99F6780E870E060E008959FEF80EC72
:10195000089500240A941616170618060906089515
:1019600000240A9412161306140605060895092E7B
:101970000394000C11F4882352F0BB0F40F4BF2BEA
:1019800011F460FF04C06F5F7F4F8F4F9F4F08952A
:1019900057FD9058440F551F59F05F3F71F0479520
:1019A000880F97FB991F61F09F3F79F08795089505
:1019B000121613061406551FF2CF4695F1DF08C024
:1019C000161617061806991FF1CF86957105610541
:1019D00008940895E894BB2766277727CB0197F9E9
:1019E0000895052E97FB1EF400940E94080D57FDE4
:1019F00007D00E945A0D07FC03D04EF40C94080D3A
:101A000050954095309521953F4F4F4F5F4F08952A
:101A100090958095709561957F4F8F4F9F4F08955A
:101A20000E947C0DA59F900DB49F900DA49F800DEA
:101A3000911D11240895B7FF0C94100D0E94100DF4
:101A4000821B930B08952F923F924F925F926F9259
:101A50007F928F929F92AF92BF92CF92DF92EF923E
:101A6000FF920F931F93CF93DF93CDB7DEB7CA1BBF
:101A7000DB0B0FB6F894DEBF0FBECDBF09942A88EA
:101A8000398848885F846E847D848C849B84AA8492
:101A9000B984C884DF80EE80FD800C811B81AA811F
:101AA000B981CE0FD11D0FB6F894DEBF0FBECDBFEA
:101AB000ED010895A1E21A2EAA1BBB1BFD010DC06A
:101AC000AA1FBB1FEE1FFF1FA217B307E407F507EE
:101AD00020F0A21BB30BE40BF50B661F771F881FCA
:101AE000991F1A9469F760957095809590959B0160
:101AF000AC01BD01CF010895A29FB001B39FC00109
:101B0000A39F700D811D1124911DB29F700D811D29
:101B10001124911D08955058BB27AA270E94A30D98
:101B20000C94B70C0E94A90C38F00E94B00C20F065
:101B300039F49F3F19F426F40C94A60C0EF4E095AA
:101B4000E7FB0C94A00CE92F0E94C80C58F3BA17BD
:101B5000620773078407950720F079F4A6F50C94C3
:101B6000EA0C0EF4E0950B2EBA2FA02D0B01B90153
:101B700090010C01CA01A0011124FF27591B99F003
:101B8000593F50F4503E68F11A16F040A22F232F0F
:101B9000342F4427585FF3CF469537952795A7955F
:101BA000F0405395C9F77EF41F16BA0B620B730B06
:101BB000840BBAF09150A1F0FF0FBB1F661F771F77
:101BC000881FC2F70EC0BA0F621F731F841F48F42C
:101BD000879577956795B795F7959E3F08F0B0CFB5
:101BE0009395880F08F09927EE0F9795879508959C
:101BF0000E94D00C88F09F5798F0B92F9927B751C1
:101C0000B0F0E1F0660F771F881F991F1AF0BA95A0
:101C1000C9F714C0B13091F00E94EA0CB1E0089508
:101C20000C94EA0C672F782F8827B85F39F0B93FFA
:101C3000CCF3869577956795B395D9F73EF4909553
:101C40008095709561957F4F8F4F9F4F08950E94AB
:101C50000C0C08F48FEF08950E940C0C880B990B64
:101C60000895991B79E004C0991F961708F0961BF8
:101C7000881F7A95C9F780950895EE0FFF1F05908C
:101C8000F491E02D09940F931F93CF93DF9382304B
:101C9000910510F482E090E0E0911503F0911603B5
:101CA00030E020E0B0E0A0E0309799F42115310554
:101CB00009F44AC0281B390B24303105D8F58A8134
:101CC0009B816115710589F1FB0193838283FE017C
:101CD00011C0408151810281138148175907E0F0FA
:101CE0004817590799F4109761F012960C931297C0
:101CF00013961C933296CF01DF91CF911F910F91D4
:101D000008950093150310931603F4CF21153105A0
:101D100051F04217530738F0A901DB019A01BD01C8
:101D2000DF01F801C1CFEF01F9CF90931603809343
:101D30001503CDCFFE01E20FF31F81939193225043
:101D4000310939832883D7CF2091130330911403AD
:101D5000232B41F4209106013091070130931403A5
:101D600020931303209104013091050121153105C1
:101D700041F42DB73EB74091080150910901241B51
:101D8000350BE0911303F0911403E217F307A0F46D
:101D90002E1B3F0B2817390778F0AC014E5F5F4FC1
:101DA0002417350748F04E0F5F1F509314034093DC
:101DB0001303819391939FCFF0E0E0E09CCFCF930A
:101DC000DF930097E9F0FC01329713821282A09111
:101DD0001503B0911603ED0130E020E01097A1F457
:101DE00020813181820F931F2091130330911403BE
:101DF0002817390709F061C0F0931403E093130327
:101E0000DF91CF910895EA01CE17DF07E8F54A8107
:101E10005B819E0141155105B1F7E901FB83EA831E
:101E200049915991C40FD51FEC17FD0761F48081CA
:101E300091810296840F951FE9019983888382819D
:101E400093819B838A83F0E0E0E012968D919C91D0
:101E500013970097B9F52D913C911197CD010296FA
:101E6000820F931F20911303309114032817390711
:101E700039F6309751F51092160310921503B0936E
:101E80001403A0931303BCCFD383C2834081518139
:101E9000840F951FC817D90761F44E5F5F4F888183
:101EA0009981480F591F518340838A819B81938375
:101EB00082832115310509F0B0CFF0931603E0932A
:101EC00015039ECFFD01DC01C0CF13821282D7CF54
:101ED000B0E0A0E0EEE6FFE00C94250D8C01009749
:101EE00051F4CB010E94430E8C01C801CDB7DEB77F
:101EF000E0E10C94410DFC01E60FF71F9C0122501C
:101F00003109E217F30708F49DC0D901CD91DC91A6
:101F10001197C617D70798F0C530D10530F3CE0119
:101F200004978617970708F3C61BD70B2297C19310
:101F3000D1936D937C93CF010E94DF0ED6CF5B01CE
:101F4000AC1ABD0A4C018C0E9D1EA0911503B091D8
:101F50001603512C412CF12CE12C109731F5809176
:101F60001303909114038815990509F05CC0461677
:101F7000570608F058C08091040190910501009720
:101F800041F48DB79EB74091080150910901841B1F
:101F9000950BE817F90708F055C0F0931403E09388
:101FA0001303F90171836083A0CF8D919C911197E8
:101FB00012966C90129713967C901397A815B905FA
:101FC00059F56C0142E0C40ED11CCA14DB0420F1A7
:101FD000AC014A195B09DA011296159780F062820A
:101FE000738251834083D9016D937C93E114F10492
:101FF00071F0D7011396FC93EE93129776CF229649
:102000008C0F9D1FF90191838083F301EFCFF09333
:102010001603E093150369CF4816590608F42C01FE
:102020007D01D3019ACFCB010E94430E7C01009722
:1020300049F0AE01B8010E942510C8010E94DF0ED0
:10204000870153CF10E000E050CFFB01DC0102C05C
:1020500001900D9241505040D8F70895FC018191B4
:10206000861721F08823D9F7992708953197CF0152
:102070000895FB01DC018D91019080190110D9F3C5
:10208000990B0895FB01DC0101900D920020E1F70E
:102090000895FB01DC014150504030F08D910190DA
:1020A000801919F40020B9F7881B990B0895FB01DA
:1020B00051915523A9F0BF01DC014D914517411104
:1020C000E1F759F4CD010190002049F04D91401500
:1020D0004111C9F3FB014111EFCF81E090E001977D
:0620E0000895F894FFCF03
:1020E6000000C8410000170380000000000037020E
:1020F600570184018402F5019301E7010000000005
:1021060023045701A502A402416C6C20446576693C
:10211600636573204F46460053595354454D204C32
:102126004F434B4544003000520031004C414D5066
:102136005F4F4E004C414D505F4F4646004C616D1F
:10214600703A204F4E00534D41525420434F4E5447
:10215600524F4C004C616D703A204F46460032009B
:1021660046414E5F4F4E0046414E5F4F4646004643
:10217600616E3A204F4E0046616E3A204F46460049
:102186005700426C696E64733A204F50454E0048C2
:10219600414E44204745535455524500426C696EA2
:1021A60064733A20434C4F5345440041435F4F4EBE
:1021B6000041433A204F4E00534D4152542048555A
:1021C600420041435F4F46460041433A204F464650
:1021D6000054454D505F494E3A006E616E00696E7F
:1021E60066006F7666000D0A005345543A00534D5B
:1021F60041525420414320284149290054617267C5
:0822060065743A20004300005A
:00000001FF
